{
  "_format": "hh-sol-artifact-1",
  "contractName": "CelestialSBT",
  "sourceName": "contracts/CelestialSBT.sol",
  "abi": [
    {
      "inputs": [],
      "stateMutability": "nonpayable",
      "type": "constructor"
    },
    {
      "inputs": [
        {
          "internalType": "address",
          "name": "sender",
          "type": "address"
        },
        {
          "internalType": "uint256",
          "name": "tokenId",
          "type": "uint256"
        },
        {
          "internalType": "address",
          "name": "owner",
          "type": "address"
        }
      ],
      "name": "ERC721IncorrectOwner",
      "type": "error"
    },
    {
      "inputs": [
        {
          "internalType": "address",
          "name": "operator",
          "type": "address"
        },
        {
          "internalType": "uint256",
          "name": "tokenId",
          "type": "uint256"
        }
      ],
      "name": "ERC721InsufficientApproval",
      "type": "error"
    },
    {
      "inputs": [
        {
          "internalType": "address",
          "name": "approver",
          "type": "address"
        }
      ],
      "name": "ERC721InvalidApprover",
      "type": "error"
    },
    {
      "inputs": [
        {
          "internalType": "address",
          "name": "operator",
          "type": "address"
        }
      ],
      "name": "ERC721InvalidOperator",
      "type": "error"
    },
    {
      "inputs": [
        {
          "internalType": "address",
          "name": "owner",
          "type": "address"
        }
      ],
      "name": "ERC721InvalidOwner",
      "type": "error"
    },
    {
      "inputs": [
        {
          "internalType": "address",
          "name": "receiver",
          "type": "address"
        }
      ],
      "name": "ERC721InvalidReceiver",
      "type": "error"
    },
    {
      "inputs": [
        {
          "internalType": "address",
          "name": "sender",
          "type": "address"
        }
      ],
      "name": "ERC721InvalidSender",
      "type": "error"
    },
    {
      "inputs": [
        {
          "internalType": "uint256",
          "name": "tokenId",
          "type": "uint256"
        }
      ],
      "name": "ERC721NonexistentToken",
      "type": "error"
    },
    {
      "inputs": [
        {
          "internalType": "address",
          "name": "owner",
          "type": "address"
        }
      ],
      "name": "OwnableInvalidOwner",
      "type": "error"
    },
    {
      "inputs": [
        {
          "internalType": "address",
          "name": "account",
          "type": "address"
        }
      ],
      "name": "OwnableUnauthorizedAccount",
      "type": "error"
    },
    {
      "anonymous": false,
      "inputs": [
        {
          "indexed": true,
          "internalType": "address",
          "name": "owner",
          "type": "address"
        },
        {
          "indexed": true,
          "internalType": "address",
          "name": "approved",
          "type": "address"
        },
        {
          "indexed": true,
          "internalType": "uint256",
          "name": "tokenId",
          "type": "uint256"
        }
      ],
      "name": "Approval",
      "type": "event"
    },
    {
      "anonymous": false,
      "inputs": [
        {
          "indexed": true,
          "internalType": "address",
          "name": "owner",
          "type": "address"
        },
        {
          "indexed": true,
          "internalType": "address",
          "name": "operator",
          "type": "address"
        },
        {
          "indexed": false,
          "internalType": "bool",
          "name": "approved",
          "type": "bool"
        }
      ],
      "name": "ApprovalForAll",
      "type": "event"
    },
    {
      "anonymous": false,
      "inputs": [
        {
          "indexed": false,
          "internalType": "uint256",
          "name": "tokenId",
          "type": "uint256"
        }
      ],
      "name": "Locked",
      "type": "event"
    },
    {
      "anonymous": false,
      "inputs": [
        {
          "indexed": true,
          "internalType": "address",
          "name": "to",
          "type": "address"
        },
        {
          "indexed": true,
          "internalType": "uint256",
          "name": "tokenId",
          "type": "uint256"
        },
        {
          "indexed": false,
          "internalType": "string",
          "name": "domain",
          "type": "string"
        }
      ],
      "name": "Minted",
      "type": "event"
    },
    {
      "anonymous": false,
      "inputs": [
        {
          "indexed": true,
          "internalType": "address",
          "name": "previousOwner",
          "type": "address"
        },
        {
          "indexed": true,
          "internalType": "address",
          "name": "newOwner",
          "type": "address"
        }
      ],
      "name": "OwnershipTransferred",
      "type": "event"
    },
    {
      "anonymous": false,
      "inputs": [
        {
          "indexed": true,
          "internalType": "uint256",
          "name": "tokenId",
          "type": "uint256"
        }
      ],
      "name": "Revoked",
      "type": "event"
    },
    {
      "anonymous": false,
      "inputs": [
        {
          "indexed": true,
          "internalType": "address",
          "name": "from",
          "type": "address"
        },
        {
          "indexed": true,
          "internalType": "address",
          "name": "to",
          "type": "address"
        },
        {
          "indexed": true,
          "internalType": "uint256",
          "name": "tokenId",
          "type": "uint256"
        }
      ],
      "name": "Transfer",
      "type": "event"
    },
    {
      "anonymous": false,
      "inputs": [
        {
          "indexed": false,
          "internalType": "uint256",
          "name": "tokenId",
          "type": "uint256"
        }
      ],
      "name": "Unlocked",
      "type": "event"
    },
    {
      "inputs": [
        {
          "internalType": "address",
          "name": "",
          "type": "address"
        },
        {
          "internalType": "uint256",
          "name": "",
          "type": "uint256"
        }
      ],
      "name": "approve",
      "outputs": [],
      "stateMutability": "pure",
      "type": "function"
    },
    {
      "inputs": [
        {
          "internalType": "address",
          "name": "owner",
          "type": "address"
        }
      ],
      "name": "balanceOf",
      "outputs": [
        {
          "internalType": "uint256",
          "name": "",
          "type": "uint256"
        }
      ],
      "stateMutability": "view",
      "type": "function"
    },
    {
      "inputs": [
        {
          "internalType": "uint256",
          "name": "",
          "type": "uint256"
        }
      ],
      "name": "domainOf",
      "outputs": [
        {
          "internalType": "string",
          "name": "",
          "type": "string"
        }
      ],
      "stateMutability": "view",
      "type": "function"
    },
    {
      "inputs": [
        {
          "internalType": "uint256",
          "name": "tokenId",
          "type": "uint256"
        }
      ],
      "name": "getApproved",
      "outputs": [
        {
          "internalType": "address",
          "name": "",
          "type": "address"
        }
      ],
      "stateMutability": "view",
      "type": "function"
    },
    {
      "inputs": [
        {
          "internalType": "address",
          "name": "owner",
          "type": "address"
        },
        {
          "internalType": "address",
          "name": "operator",
          "type": "address"
        }
      ],
      "name": "isApprovedForAll",
      "outputs": [
        {
          "internalType": "bool",
          "name": "",
          "type": "bool"
        }
      ],
      "stateMutability": "view",
      "type": "function"
    },
    {
      "inputs": [
        {
          "internalType": "uint256",
          "name": "tokenId",
          "type": "uint256"
        }
      ],
      "name": "locked",
      "outputs": [
        {
          "internalType": "bool",
          "name": "",
          "type": "bool"
        }
      ],
      "stateMutability": "view",
      "type": "function"
    },
    {
      "inputs": [
        {
          "internalType": "address",
          "name": "to",
          "type": "address"
        },
        {
          "internalType": "string",
          "name": "domain",
          "type": "string"
        },
        {
          "internalType": "string",
          "name": "uri",
          "type": "string"
        }
      ],
      "name": "mint",
      "outputs": [
        {
          "internalType": "uint256",
          "name": "",
          "type": "uint256"
        }
      ],
      "stateMutability": "nonpayable",
      "type": "function"
    },
    {
      "inputs": [],
      "name": "name",
      "outputs": [
        {
          "internalType": "string",
          "name": "",
          "type": "string"
        }
      ],
      "stateMutability": "view",
      "type": "function"
    },
    {
      "inputs": [],
      "name": "owner",
      "outputs": [
        {
          "internalType": "address",
          "name": "",
          "type": "address"
        }
      ],
      "stateMutability": "view",
      "type": "function"
    },
    {
      "inputs": [
        {
          "internalType": "uint256",
          "name": "tokenId",
          "type": "uint256"
        }
      ],
      "name": "ownerOf",
      "outputs": [
        {
          "internalType": "address",
          "name": "",
          "type": "address"
        }
      ],
      "stateMutability": "view",
      "type": "function"
    },
    {
      "inputs": [],
      "name": "renounceOwnership",
      "outputs": [],
      "stateMutability": "nonpayable",
      "type": "function"
    },
    {
      "inputs": [
        {
          "internalType": "uint256",
          "name": "tokenId",
          "type": "uint256"
        }
      ],
      "name": "revoke",
      "outputs": [],
      "stateMutability": "nonpayable",
      "type": "function"
    },
    {
      "inputs": [
        {
          "internalType": "uint256",
          "name": "",
          "type": "uint256"
        }
      ],
      "name": "revoked",
      "outputs": [
        {
          "internalType": "bool",
          "name": "",
          "type": "bool"
        }
      ],
      "stateMutability": "view",
      "type": "function"
    },
    {
      "inputs": [
        {
          "internalType": "address",
          "name": "from",
          "type": "address"
        },
        {
          "internalType": "address",
          "name": "to",
          "type": "address"
        },
        {
          "internalType": "uint256",
          "name": "tokenId",
          "type": "uint256"
        }
      ],
      "name": "safeTransferFrom",
      "outputs": [],
      "stateMutability": "nonpayable",
      "type": "function"
    },
    {
      "inputs": [
        {
          "internalType": "address",
          "name": "from",
          "type": "address"
        },
        {
          "internalType": "address",
          "name": "to",
          "type": "address"
        },
        {
          "internalType": "uint256",
          "name": "tokenId",
          "type": "uint256"
        },
        {
          "internalType": "bytes",
          "name": "data",
          "type": "bytes"
        }
      ],
      "name": "safeTransferFrom",
      "outputs": [],
      "stateMutability": "nonpayable",
      "type": "function"
    },
    {
      "inputs": [
        {
          "internalType": "address",
          "name": "",
          "type": "address"
        },
        {
          "internalType": "bool",
          "name": "",
          "type": "bool"
        }
      ],
      "name": "setApprovalForAll",
      "outputs": [],
      "stateMutability": "pure",
      "type": "function"
    },
    {
      "inputs": [
        {
          "internalType": "bytes4",
          "name": "interfaceId",
          "type": "bytes4"
        }
      ],
      "name": "supportsInterface",
      "outputs": [
        {
          "internalType": "bool",
          "name": "",
          "type": "bool"
        }
      ],
      "stateMutability": "view",
      "type": "function"
    },
    {
      "inputs": [],
      "name": "symbol",
      "outputs": [
        {
          "internalType": "string",
          "name": "",
          "type": "string"
        }
      ],
      "stateMutability": "view",
      "type": "function"
    },
    {
      "inputs": [
        {
          "internalType": "uint256",
          "name": "tokenId",
          "type": "uint256"
        }
      ],
      "name": "tokenURI",
      "outputs": [
        {
          "internalType": "string",
          "name": "",
          "type": "string"
        }
      ],
      "stateMutability": "view",
      "type": "function"
    },
    {
      "inputs": [
        {
          "internalType": "address",
          "name": "from",
          "type": "address"
        },
        {
          "internalType": "address",
          "name": "to",
          "type": "address"
        },
        {
          "internalType": "uint256",
          "name": "tokenId",
          "type": "uint256"
        }
      ],
      "name": "transferFrom",
      "outputs": [],
      "stateMutability": "nonpayable",
      "type": "function"
    },
    {
      "inputs": [
        {
          "internalType": "address",
          "name": "newOwner",
          "type": "address"
        }
      ],
      "name": "transferOwnership",
      "outputs": [],
      "stateMutability": "nonpayable",
      "type": "function"
    }
  ],
  "bytecode": "0x6080604052600160075534801562000015575f80fd5b50336040518060400160405280601481526020017f4d65746120476f20536f7665726569676e204944000000000000000000000000815250604051806040016040528060058152602001641351d4d25160da1b815250815f90816200007b9190620001bc565b5060016200008a8282620001bc565b5050506001600160a01b038116620000bb57604051631e4fbdf760e01b81525f600482015260240160405180910390fd5b620000c681620000cd565b5062000288565b600680546001600160a01b038381166001600160a01b0319831681179093556040519116919082907f8be0079c531659141344cd1fd0a4f28419497f9722a3daafe3b4186f6b6457e0905f90a35050565b634e487b7160e01b5f52604160045260245ffd5b600181811c908216806200014757607f821691505b6020821081036200016657634e487b7160e01b5f52602260045260245ffd5b50919050565b601f821115620001b757805f5260205f20601f840160051c81016020851015620001935750805b601f840160051c820191505b81811015620001b4575f81556001016200019f565b50505b505050565b81516001600160401b03811115620001d857620001d86200011e565b620001f081620001e9845462000132565b846200016c565b602080601f83116001811462000226575f84156200020e5750858301515b5f19600386901b1c1916600185901b17855562000280565b5f85815260208120601f198616915b82811015620002565788860151825594840194600190910190840162000235565b50858210156200027457878501515f19600388901b60f8161c191681555b505060018460011b0185555b505050505050565b6113c780620002965f395ff3fe608060405234801561000f575f80fd5b5060043610610132575f3560e01c80638da5cb5b116100b4578063b88d4fde11610079578063b88d4fde14610275578063c6c17ec014610288578063c87b56dd1461029b578063d5b141e7146102ae578063e985e9c5146102d0578063f2fde38b146102e3575f80fd5b80638da5cb5b1461022857806395d89b41146102395780639907119014610241578063a22cb46514610254578063b45a3c0e14610262575f80fd5b806323b872dd116100fa57806323b872dd146101c657806342842e0e146101d95780636352211e146101ec57806370a08231146101ff578063715018a614610220575f80fd5b806301ffc9a71461013657806306fdde031461015e578063081812fc14610173578063095ea7b31461019e57806320c5429b146101b3575b5f80fd5b610149610144366004610e7c565b6102f6565b60405190151581526020015b60405180910390f35b610166610347565b6040516101559190610ee1565b610186610181366004610ef3565b6103d6565b6040516001600160a01b039091168152602001610155565b6101b16101ac366004610f25565b6103fd565b005b6101b16101c1366004610ef3565b61044a565b6101b16101d4366004610f4d565b61049e565b6101b16101e7366004610f4d565b610527565b6101866101fa366004610ef3565b610546565b61021261020d366004610f86565b610550565b604051908152602001610155565b6101b1610595565b6006546001600160a01b0316610186565b6101666105a8565b61021261024f366004610fe4565b6105b7565b6101b16101ac36600461105f565b610149610270366004610ef3565b6106d8565b6101b16102833660046110ac565b6106eb565b610166610296366004610ef3565b610702565b6101666102a9366004610ef3565b610799565b6101496102bc366004610ef3565b60096020525f908152604090205460ff1681565b6101496102de366004611181565b610840565b6101b16102f1366004610f86565b61086d565b5f6001600160e01b031982166380ac58cd60e01b148061032657506001600160e01b03198216635b5e139f60e01b145b8061034157506301ffc9a760e01b6001600160e01b03198316145b92915050565b60605f8054610355906111b2565b80601f0160208091040260200160405190810160405280929190818152602001828054610381906111b2565b80156103cc5780601f106103a3576101008083540402835291602001916103cc565b820191905f5260205f20905b8154815290600101906020018083116103af57829003601f168201915b5050505050905090565b5f6103e0826108aa565b505f828152600460205260409020546001600160a01b0316610341565b60405162461bcd60e51b815260206004820152601c60248201527f534f554c424f554e443a20617070726f76616c2064697361626c65640000000060448201526064015b60405180910390fd5b6104526108e2565b61045b816108aa565b505f81815260096020526040808220805460ff191660011790555182917f61e27b0bfd8e18e6b92ec32ce1c28bb698d27bfe93e84c7e94d4db0a3135c76091a250565b6001600160a01b0382166104c757604051633250574960e11b81525f6004820152602401610441565b5f6104d383833361090f565b9050836001600160a01b0316816001600160a01b031614610521576040516364283d7b60e01b81526001600160a01b0380861660048301526024820184905282166044820152606401610441565b50505050565b61054183838360405180602001604052805f8152506106eb565b505050565b5f610341826108aa565b5f6001600160a01b03821661057a576040516322718ad960e21b81525f6004820152602401610441565b506001600160a01b03165f9081526003602052604090205490565b61059d6108e2565b6105a65f61099e565b565b606060018054610355906111b2565b5f6105c06108e2565b6001600160a01b0386166106055760405162461bcd60e51b815260206004820152600c60248201526b4d696e7420746f207a65726f60a01b6044820152606401610441565b600780545f9182610615836111ea565b91905055905061062587826109ef565b5f81815260086020526040902061063d868883611252565b505f818152600a60205260409020610656848683611252565b5080876001600160a01b03167fe7cd4ce7f2a465edc730269a1305e8a48bad821e8fb7e152ec413829c01a53c4888860405161069392919061130c565b60405180910390a36040518181527f032bc66be43dbccb7487781d168eb7bda224628a3b2c3388bdf69b532a3a16119060200160405180910390a19695505050505050565b5f6106e2826108aa565b50600192915050565b6106f684848461049e565b61052184848484610a0c565b60086020525f90815260409020805461071a906111b2565b80601f0160208091040260200160405190810160405280929190818152602001828054610746906111b2565b80156107915780601f1061076857610100808354040283529160200191610791565b820191905f5260205f20905b81548152906001019060200180831161077457829003601f168201915b505050505081565b60606107a4826108aa565b505f828152600a6020526040902080546107bd906111b2565b80601f01602080910402602001604051908101604052809291908181526020018280546107e9906111b2565b80156108345780601f1061080b57610100808354040283529160200191610834565b820191905f5260205f20905b81548152906001019060200180831161081757829003601f168201915b50505050509050919050565b6001600160a01b039182165f90815260056020908152604080832093909416825291909152205460ff1690565b6108756108e2565b6001600160a01b03811661089e57604051631e4fbdf760e01b81525f6004820152602401610441565b6108a78161099e565b50565b5f818152600260205260408120546001600160a01b03168061034157604051637e27328960e01b815260048101849052602401610441565b6006546001600160a01b031633146105a65760405163118cdaa760e01b8152336004820152602401610441565b5f828152600260205260408120546001600160a01b0316801580159061093d57506001600160a01b03851615155b1561098a5760405162461bcd60e51b815260206004820152601c60248201527f534f554c424f554e443a207472616e736665722064697361626c6564000000006044820152606401610441565b610995858585610b32565b95945050505050565b600680546001600160a01b038381166001600160a01b0319831681179093556040519116919082907f8be0079c531659141344cd1fd0a4f28419497f9722a3daafe3b4186f6b6457e0905f90a35050565b610a08828260405180602001604052805f815250610c24565b5050565b6001600160a01b0383163b1561052157604051630a85bd0160e11b81526001600160a01b0384169063150b7a0290610a4e90339088908790879060040161133a565b6020604051808303815f875af1925050508015610a88575060408051601f3d908101601f19168201909252610a8591810190611376565b60015b610aef573d808015610ab5576040519150601f19603f3d011682016040523d82523d5f602084013e610aba565b606091505b5080515f03610ae757604051633250574960e11b81526001600160a01b0385166004820152602401610441565b805181602001fd5b6001600160e01b03198116630a85bd0160e11b14610b2b57604051633250574960e11b81526001600160a01b0385166004820152602401610441565b5050505050565b5f828152600260205260408120546001600160a01b0390811690831615610b5e57610b5e818486610c3a565b6001600160a01b03811615610b9857610b795f855f80610c9e565b6001600160a01b0381165f90815260036020526040902080545f190190555b6001600160a01b03851615610bc6576001600160a01b0385165f908152600360205260409020805460010190555b5f8481526002602052604080822080546001600160a01b0319166001600160a01b0389811691821790925591518793918516917fddf252ad1be2c89b69c2b068fc378daa952ba7f163c4a11628f55a4df523b3ef91a4949350505050565b610c2e8383610da2565b6105415f848484610a0c565b610c45838383610e03565b610541576001600160a01b038316610c7357604051637e27328960e01b815260048101829052602401610441565b60405163177e802f60e01b81526001600160a01b038316600482015260248101829052604401610441565b8080610cb257506001600160a01b03821615155b15610d73575f610cc1846108aa565b90506001600160a01b03831615801590610ced5750826001600160a01b0316816001600160a01b031614155b8015610d005750610cfe8184610840565b155b15610d295760405163a9fbf51f60e01b81526001600160a01b0384166004820152602401610441565b8115610d715783856001600160a01b0316826001600160a01b03167f8c5be1e5ebec7d5bd14f71427d1e84f3dd0314c0f7b2291e5b200ac8c7c3b92560405160405180910390a45b505b50505f90815260046020526040902080546001600160a01b0319166001600160a01b0392909216919091179055565b6001600160a01b038216610dcb57604051633250574960e11b81525f6004820152602401610441565b5f610dd783835f61090f565b90506001600160a01b03811615610541576040516339e3563760e11b81525f6004820152602401610441565b5f6001600160a01b03831615801590610e5f5750826001600160a01b0316846001600160a01b03161480610e3c5750610e3c8484610840565b80610e5f57505f828152600460205260409020546001600160a01b038481169116145b949350505050565b6001600160e01b0319811681146108a7575f80fd5b5f60208284031215610e8c575f80fd5b8135610e9781610e67565b9392505050565b5f81518084525f5b81811015610ec257602081850181015186830182015201610ea6565b505f602082860101526020601f19601f83011685010191505092915050565b602081525f610e976020830184610e9e565b5f60208284031215610f03575f80fd5b5035919050565b80356001600160a01b0381168114610f20575f80fd5b919050565b5f8060408385031215610f36575f80fd5b610f3f83610f0a565b946020939093013593505050565b5f805f60608486031215610f5f575f80fd5b610f6884610f0a565b9250610f7660208501610f0a565b9150604084013590509250925092565b5f60208284031215610f96575f80fd5b610e9782610f0a565b5f8083601f840112610faf575f80fd5b50813567ffffffffffffffff811115610fc6575f80fd5b602083019150836020828501011115610fdd575f80fd5b9250929050565b5f805f805f60608688031215610ff8575f80fd5b61100186610f0a565b9450602086013567ffffffffffffffff8082111561101d575f80fd5b61102989838a01610f9f565b90965094506040880135915080821115611041575f80fd5b5061104e88828901610f9f565b969995985093965092949392505050565b5f8060408385031215611070575f80fd5b61107983610f0a565b91506020830135801515811461108d575f80fd5b809150509250929050565b634e487b7160e01b5f52604160045260245ffd5b5f805f80608085870312156110bf575f80fd5b6110c885610f0a565b93506110d660208601610f0a565b925060408501359150606085013567ffffffffffffffff808211156110f9575f80fd5b818701915087601f83011261110c575f80fd5b81358181111561111e5761111e611098565b604051601f8201601f19908116603f0116810190838211818310171561114657611146611098565b816040528281528a602084870101111561115e575f80fd5b826020860160208301375f60208483010152809550505050505092959194509250565b5f8060408385031215611192575f80fd5b61119b83610f0a565b91506111a960208401610f0a565b90509250929050565b600181811c908216806111c657607f821691505b6020821081036111e457634e487b7160e01b5f52602260045260245ffd5b50919050565b5f6001820161120757634e487b7160e01b5f52601160045260245ffd5b5060010190565b601f82111561054157805f5260205f20601f840160051c810160208510156112335750805b601f840160051c820191505b81811015610b2b575f815560010161123f565b67ffffffffffffffff83111561126a5761126a611098565b61127e8361127883546111b2565b8361120e565b5f601f8411600181146112af575f85156112985750838201355b5f19600387901b1c1916600186901b178355610b2b565b5f83815260208120601f198716915b828110156112de57868501358255602094850194600190920191016112be565b50868210156112fa575f1960f88860031b161c19848701351681555b505060018560011b0183555050505050565b60208152816020820152818360408301375f818301604090810191909152601f909201601f19160101919050565b6001600160a01b03858116825284166020820152604081018390526080606082018190525f9061136c90830184610e9e565b9695505050505050565b5f60208284031215611386575f80fd5b8151610e9781610e6756fea26469706673582212205c083889ddfe8fdb21eef076820b282446a83f90c7a2ab726d7ca7a14b3ea1fa64736f6c63430008180033",
  "linkReferences": {},
  "deployedLinkReferences": {}
}