{
  "_format": "hh-sol-artifact-1",
  "contractName": "CredentialVault",
  "sourceName": "contracts/CredentialVault.sol",
  "abi": [
    {
      "anonymous": false,
      "inputs": [
        {
          "indexed": true,
          "internalType": "address",
          "name": "holder",
          "type": "address"
        },
        {
          "indexed": true,
          "internalType": "bytes32",
          "name": "vcId",
          "type": "bytes32"
        },
        {
          "indexed": true,
          "internalType": "address",
          "name": "issuer",
          "type": "address"
        }
      ],
      "name": "CredentialIssued",
      "type": "event"
    },
    {
      "anonymous": false,
      "inputs": [
        {
          "indexed": true,
          "internalType": "address",
          "name": "holder",
          "type": "address"
        },
        {
          "indexed": true,
          "internalType": "bytes32",
          "name": "vcId",
          "type": "bytes32"
        }
      ],
      "name": "CredentialRevoked",
      "type": "event"
    },
    {
      "inputs": [
        {
          "internalType": "address",
          "name": "holder",
          "type": "address"
        },
        {
          "internalType": "bytes32",
          "name": "vcId",
          "type": "bytes32"
        },
        {
          "internalType": "string",
          "name": "vcType",
          "type": "string"
        },
        {
          "internalType": "bytes32",
          "name": "vcHash",
          "type": "bytes32"
        },
        {
          "internalType": "string",
          "name": "ipfsURI",
          "type": "string"
        }
      ],
      "name": "issueCredential",
      "outputs": [],
      "stateMutability": "nonpayable",
      "type": "function"
    },
    {
      "inputs": [
        {
          "internalType": "address",
          "name": "holder",
          "type": "address"
        },
        {
          "internalType": "bytes32",
          "name": "vcId",
          "type": "bytes32"
        }
      ],
      "name": "revokeCredential",
      "outputs": [],
      "stateMutability": "nonpayable",
      "type": "function"
    },
    {
      "inputs": [
        {
          "internalType": "address",
          "name": "",
          "type": "address"
        },
        {
          "internalType": "bytes32",
          "name": "",
          "type": "bytes32"
        }
      ],
      "name": "vault",
      "outputs": [
        {
          "internalType": "string",
          "name": "vcType",
          "type": "string"
        },
        {
          "internalType": "bytes32",
          "name": "vcHash",
          "type": "bytes32"
        },
        {
          "internalType": "string",
          "name": "ipfsURI",
          "type": "string"
        },
        {
          "internalType": "uint64",
          "name": "issuedAt",
          "type": "uint64"
        },
        {
          "internalType": "bool",
          "name": "revoked",
          "type": "bool"
        },
        {
          "internalType": "address",
          "name": "issuer",
          "type": "address"
        }
      ],
      "stateMutability": "view",
      "type": "function"
    }
  ],
  "bytecode": "0x608060405234801561000f575f80fd5b506107ba8061001d5f395ff3fe608060405234801561000f575f80fd5b506004361061003f575f3560e01c8063b7773cc914610043578063e5dca78e14610071578063eb148fee14610086575b5f80fd5b610056610051366004610493565b610099565b604051610068969594939291906104fe565b60405180910390f35b61008461007f366004610493565b6101fc565b005b61008461009436600461059f565b6102d9565b5f6020818152928152604080822090935290815220805481906100bb9061062c565b80601f01602080910402602001604051908101604052809291908181526020018280546100e79061062c565b80156101325780601f1061010957610100808354040283529160200191610132565b820191905f5260205f20905b81548152906001019060200180831161011557829003601f168201915b50505050509080600101549080600201805461014d9061062c565b80601f01602080910402602001604051908101604052809291908181526020018280546101799061062c565b80156101c45780601f1061019b576101008083540402835291602001916101c4565b820191905f5260205f20905b8154815290600101906020018083116101a757829003601f168201915b5050506003909301549192505067ffffffffffffffff81169060ff600160401b820416906001600160a01b03600160481b9091041686565b6001600160a01b038281165f90815260208181526040808320858452909152902060030154600160481b90041633146102745760405162461bcd60e51b81526020600482015260166024820152754f6e6c79206973737565722063616e207265766f6b6560501b604482015260640160405180910390fd5b6001600160a01b0382165f81815260208181526040808320858452909152808220600301805468ff00000000000000001916600160401b179055518392917f3026993f4e06fc52b2f2f8ee2035821b9b29172ab964da353b6ba3c89133727e91a35050565b6040518060c0016040528086868080601f0160208091040260200160405190810160405280939291908181526020018383808284375f92019190915250505090825250602080820186905260408051601f860183900483028101830182528581529201919085908590819084018382808284375f92018290525093855250505067ffffffffffffffff42166020808401919091526040808401839052336060909401939093526001600160a01b038b1682528181528282208a8352905220815181906103a590826106c4565b5060208201516001820155604082015160028201906103c490826106c4565b5060608201516003919091018054608084015160a09094015167ffffffffffffffff90931668ffffffffffffffffff1990911617600160401b93151593909302929092177fffffff0000000000000000000000000000000000000000ffffffffffffffffff16600160481b6001600160a01b03928316021790915560405133918891908a16907f4363709704d3f6b8d0a65f1f3e02c640ae24b87d9115262e46ae7f3a21d471db905f90a450505050505050565b80356001600160a01b038116811461048e575f80fd5b919050565b5f80604083850312156104a4575f80fd5b6104ad83610478565b946020939093013593505050565b5f81518084525f5b818110156104df576020818501810151868301820152016104c3565b505f602082860101526020601f19601f83011685010191505092915050565b60c081525f61051060c08301896104bb565b876020840152828103604084015261052881886104bb565b67ffffffffffffffff969096166060840152505091151560808301526001600160a01b031660a0909101529392505050565b5f8083601f84011261056a575f80fd5b50813567ffffffffffffffff811115610581575f80fd5b602083019150836020828501011115610598575f80fd5b9250929050565b5f805f805f805f60a0888a0312156105b5575f80fd5b6105be88610478565b965060208801359550604088013567ffffffffffffffff808211156105e1575f80fd5b6105ed8b838c0161055a565b909750955060608a0135945060808a013591508082111561060c575f80fd5b506106198a828b0161055a565b989b979a50959850939692959293505050565b600181811c9082168061064057607f821691505b60208210810361065e57634e487b7160e01b5f52602260045260245ffd5b50919050565b634e487b7160e01b5f52604160045260245ffd5b601f8211156106bf57805f5260205f20601f840160051c8101602085101561069d5750805b601f840160051c820191505b818110156106bc575f81556001016106a9565b50505b505050565b815167ffffffffffffffff8111156106de576106de610664565b6106f2816106ec845461062c565b84610678565b602080601f831160018114610725575f841561070e5750858301515b5f19600386901b1c1916600185901b17855561077c565b5f85815260208120601f198616915b8281101561075357888601518255948401946001909101908401610734565b508582101561077057878501515f19600388901b60f8161c191681555b505060018460011b0185555b50505050505056fea2646970667358221220a247ced8e3ccb81400c4410929ad9f476c01cad6a6c90d3185ef5027c0ab03e064736f6c63430008180033",
  "linkReferences": {},
  "deployedLinkReferences": {}
}