{"contracts/CelestialSBT.sol":{"CelestialSBT":{"abi":[{"anonymous":false,"inputs":[{"indexed":true,"internalType":"address","name":"to","type":"address"},{"indexed":true,"internalType":"uint256","name":"tokenId","type":"uint256"},{"indexed":false,"internalType":"string","name":"domain","type":"string"}],"name":"Minted","type":"event"},{"anonymous":false,"inputs":[{"indexed":true,"internalType":"uint256","name":"tokenId","type":"uint256"}],"name":"Revoked","type":"event"},{"inputs":[{"internalType":"address","name":"","type":"address"},{"internalType":"uint256","name":"","type":"uint256"}],"name":"approve","outputs":[],"stateMutability":"pure","type":"function"},{"inputs":[{"internalType":"address","name":"","type":"address"}],"name":"balanceOf","outputs":[{"internalType":"uint256","name":"","type":"uint256"}],"stateMutability":"view","type":"function"},{"inputs":[{"internalType":"uint256","name":"","type":"uint256"}],"name":"domainOf","outputs":[{"internalType":"string","name":"","type":"string"}],"stateMutability":"view","type":"function"},{"inputs":[{"internalType":"address","name":"to","type":"address"},{"internalType":"string","name":"domain","type":"string"},{"internalType":"string","name":"uri","type":"string"}],"name":"mint","outputs":[{"internalType":"uint256","name":"","type":"uint256"}],"stateMutability":"nonpayable","type":"function"},{"inputs":[],"name":"name","outputs":[{"internalType":"string","name":"","type":"string"}],"stateMutability":"view","type":"function"},{"inputs":[{"internalType":"uint256","name":"","type":"uint256"}],"name":"ownerOf","outputs":[{"internalType":"address","name":"","type":"address"}],"stateMutability":"view","type":"function"},{"inputs":[{"internalType":"uint256","name":"tokenId","type":"uint256"}],"name":"revoke","outputs":[],"stateMutability":"nonpayable","type":"function"},{"inputs":[{"internalType":"uint256","name":"","type":"uint256"}],"name":"revoked","outputs":[{"internalType":"bool","name":"","type":"bool"}],"stateMutability":"view","type":"function"},{"inputs":[{"internalType":"address","name":"","type":"address"},{"internalType":"address","name":"","type":"address"},{"internalType":"uint256","name":"","type":"uint256"}],"name":"safeTransferFrom","outputs":[],"stateMutability":"pure","type":"function"},{"inputs":[{"internalType":"address","name":"","type":"address"},{"internalType":"address","name":"","type":"address"},{"internalType":"uint256","name":"","type":"uint256"},{"internalType":"bytes","name":"","type":"bytes"}],"name":"safeTransferFrom","outputs":[],"stateMutability":"pure","type":"function"},{"inputs":[{"internalType":"address","name":"","type":"address"},{"internalType":"bool","name":"","type":"bool"}],"name":"setApprovalForAll","outputs":[],"stateMutability":"pure","type":"function"},{"inputs":[],"name":"symbol","outputs":[{"internalType":"string","name":"","type":"string"}],"stateMutability":"view","type":"function"},{"inputs":[{"internalType":"uint256","name":"","type":"uint256"}],"name":"tokenURIs","outputs":[{"internalType":"string","name":"","type":"string"}],"stateMutability":"view","type":"function"},{"inputs":[{"internalType":"address","name":"","type":"address"},{"internalType":"address","name":"","type":"address"},{"internalType":"uint256","name":"","type":"uint256"}],"name":"transferFrom","outputs":[],"stateMutability":"pure","type":"function"}],"evm":{"bytecode":{"linkReferences":{},"object":"60c0604052601460809081527f4d65746120476f20536f7665726569676e20494400000000000000000000000060a0525f9061003b9082610114565b506040805180820190915260058152641351d4d25160da1b60208201526001906100659082610114565b506001600255348015610076575f80fd5b506101d3565b634e487b7160e01b5f52604160045260245ffd5b600181811c908216806100a457607f821691505b6020821081036100c257634e487b7160e01b5f52602260045260245ffd5b50919050565b601f82111561010f57805f5260205f20601f840160051c810160208510156100ed5750805b601f840160051c820191505b8181101561010c575f81556001016100f9565b50505b505050565b81516001600160401b0381111561012d5761012d61007c565b6101418161013b8454610090565b846100c8565b602080601f831160018114610174575f841561015d5750858301515b5f19600386901b1c1916600185901b1785556101cb565b5f85815260208120601f198616915b828110156101a257888601518255948401946001909101908401610183565b50858210156101bf57878501515f19600388901b60f8161c191681555b505060018460011b0185555b505050505050565b610980806101e05f395ff3fe608060405234801561000f575f80fd5b50600436106100e5575f3560e01c806370a0823111610088578063a22cb46511610063578063a22cb465146101dd578063b88d4fde146101eb578063c6c17ec0146101f9578063d5b141e71461020c575f80fd5b806370a082311461019557806395d89b41146101c257806399071190146101ca575f80fd5b806323b872dd116100c357806323b872dd1461012f57806342842e0e1461012f5780636352211e146101425780636c8b703f14610182575f80fd5b806306fdde03146100e9578063095ea7b31461010757806320c5429b1461011c575b5f80fd5b6100f161023e565b6040516100fe9190610555565b60405180910390f35b61011a6101153660046105bc565b6102c9565b005b61011a61012a3660046105e4565b610316565b61011a61013d3660046105fb565b6103ad565b61016a6101503660046105e4565b60036020525f90815260409020546001600160a01b031681565b6040516001600160a01b0390911681526020016100fe565b6100f16101903660046105e4565b6103f5565b6101b46101a3366004610634565b60046020525f908152604090205481565b6040519081526020016100fe565b6100f161040d565b6101b46101d8366004610699565b61041a565b61011a610115366004610714565b61011a61013d36600461074d565b6100f16102073660046105e4565b61053d565b61022e61021a3660046105e4565b60066020525f908152604090205460ff1681565b60405190151581526020016100fe565b5f805461024a906107a6565b80601f0160208091040260200160405190810160405280929190818152602001828054610276906107a6565b80156102c15780601f10610298576101008083540402835291602001916102c1565b820191905f5260205f20905b8154815290600101906020018083116102a457829003601f168201915b505050505081565b60405162461bcd60e51b815260206004820152601c60248201527f534f554c424f554e443a20617070726f76616c2064697361626c65640000000060448201526064015b60405180910390fd5b5f818152600360205260409020546001600160a01b031661036b5760405162461bcd60e51b815260206004820152600f60248201526e151bdad95b881b9bdd08199bdd5b99608a1b604482015260640161030d565b5f81815260066020526040808220805460ff191660011790555182917f61e27b0bfd8e18e6b92ec32ce1c28bb698d27bfe93e84c7e94d4db0a3135c76091a250565b60405162461bcd60e51b815260206004820152601c60248201527f534f554c424f554e443a207472616e736665722064697361626c656400000000604482015260640161030d565b60076020525f90815260409020805461024a906107a6565b6001805461024a906107a6565b5f6001600160a01b0386166104605760405162461bcd60e51b815260206004820152600c60248201526b4d696e7420746f207a65726f60a01b604482015260640161030d565b600280545f9182610470836107de565b909155505f81815260036020908152604080832080546001600160a01b0319166001600160a01b038d169081179091558352600490915281208054929350906104b8836107de565b90915550505f8181526005602052604090206104d5868883610862565b505f8181526007602052604090206104ee848683610862565b5080876001600160a01b03167fe7cd4ce7f2a465edc730269a1305e8a48bad821e8fb7e152ec413829c01a53c4888860405161052b92919061091c565b60405180910390a39695505050505050565b60056020525f90815260409020805461024a906107a6565b5f602080835283518060208501525f5b8181101561058157858101830151858201604001528201610565565b505f604082860101526040601f19601f8301168501019250505092915050565b80356001600160a01b03811681146105b7575f80fd5b919050565b5f80604083850312156105cd575f80fd5b6105d6836105a1565b946020939093013593505050565b5f602082840312156105f4575f80fd5b5035919050565b5f805f6060848603121561060d575f80fd5b610616846105a1565b9250610624602085016105a1565b9150604084013590509250925092565b5f60208284031215610644575f80fd5b61064d826105a1565b9392505050565b5f8083601f840112610664575f80fd5b50813567ffffffffffffffff81111561067b575f80fd5b602083019150836020828501011115610692575f80fd5b9250929050565b5f805f805f606086880312156106ad575f80fd5b6106b6866105a1565b9450602086013567ffffffffffffffff808211156106d2575f80fd5b6106de89838a01610654565b909650945060408801359150808211156106f6575f80fd5b5061070388828901610654565b969995985093965092949392505050565b5f8060408385031215610725575f80fd5b61072e836105a1565b915060208301358015158114610742575f80fd5b809150509250929050565b5f805f805f60808688031215610761575f80fd5b61076a866105a1565b9450610778602087016105a1565b935060408601359250606086013567ffffffffffffffff81111561079a575f80fd5b61070388828901610654565b600181811c908216806107ba57607f821691505b6020821081036107d857634e487b7160e01b5f52602260045260245ffd5b50919050565b5f600182016107fb57634e487b7160e01b5f52601160045260245ffd5b5060010190565b634e487b7160e01b5f52604160045260245ffd5b601f82111561085d57805f5260205f20601f840160051c8101602085101561083b5750805b601f840160051c820191505b8181101561085a575f8155600101610847565b50505b505050565b67ffffffffffffffff83111561087a5761087a610802565b61088e8361088883546107a6565b83610816565b5f601f8411600181146108bf575f85156108a85750838201355b5f19600387901b1c1916600186901b17835561085a565b5f83815260208120601f198716915b828110156108ee57868501358255602094850194600190920191016108ce565b508682101561090a575f1960f88860031b161c19848701351681555b505060018560011b0183555050505050565b60208152816020820152818360408301375f818301604090810191909152601f909201601f1916010191905056fea26469706673582212203e7d4d4c65785245fbf16244195cab90c1f36e1095efb4fd610b2539d2241d9264736f6c63430008180033","opcodes":"PUSH1 0xC0 PUSH1 0x40 MSTORE PUSH1 0x14 PUSH1 0x80 SWAP1 DUP2 MSTORE PUSH32 0x4D65746120476F20536F7665726569676E204944000000000000000000000000 PUSH1 0xA0 MSTORE PUSH0 SWAP1 PUSH2 0x3B SWAP1 DUP3 PUSH2 0x114 JUMP JUMPDEST POP PUSH1 0x40 DUP1 MLOAD DUP1 DUP3 ADD SWAP1 SWAP2 MSTORE PUSH1 0x5 DUP2 MSTORE PUSH5 0x1351D4D251 PUSH1 0xDA SHL PUSH1 0x20 DUP3 ADD MSTORE PUSH1 0x1 SWAP1 PUSH2 0x65 SWAP1 DUP3 PUSH2 0x114 JUMP JUMPDEST POP PUSH1 0x1 PUSH1 0x2 SSTORE CALLVALUE DUP1 ISZERO PUSH2 0x76 JUMPI PUSH0 DUP1 REVERT JUMPDEST POP PUSH2 0x1D3 JUMP JUMPDEST PUSH4 0x4E487B71 PUSH1 0xE0 SHL PUSH0 MSTORE PUSH1 0x41 PUSH1 0x4 MSTORE PUSH1 0x24 PUSH0 REVERT JUMPDEST PUSH1 0x1 DUP2 DUP2 SHR SWAP1 DUP3 AND DUP1 PUSH2 0xA4 JUMPI PUSH1 0x7F DUP3 AND SWAP2 POP JUMPDEST PUSH1 0x20 DUP3 LT DUP2 SUB PUSH2 0xC2 JUMPI PUSH4 0x4E487B71 PUSH1 0xE0 SHL PUSH0 MSTORE PUSH1 0x22 PUSH1 0x4 MSTORE PUSH1 0x24 PUSH0 REVERT JUMPDEST POP SWAP2 SWAP1 POP JUMP JUMPDEST PUSH1 0x1F DUP3 GT ISZERO PUSH2 0x10F JUMPI DUP1 PUSH0 MSTORE PUSH1 0x20 PUSH0 KECCAK256 PUSH1 0x1F DUP5 ADD PUSH1 0x5 SHR DUP2 ADD PUSH1 0x20 DUP6 LT ISZERO PUSH2 0xED JUMPI POP DUP1 JUMPDEST PUSH1 0x1F DUP5 ADD PUSH1 0x5 SHR DUP3 ADD SWAP2 POP JUMPDEST DUP2 DUP2 LT ISZERO PUSH2 0x10C JUMPI PUSH0 DUP2 SSTORE PUSH1 0x1 ADD PUSH2 0xF9 JUMP JUMPDEST POP POP JUMPDEST POP POP POP JUMP JUMPDEST DUP2 MLOAD PUSH1 0x1 PUSH1 0x1 PUSH1 0x40 SHL SUB DUP2 GT ISZERO PUSH2 0x12D JUMPI PUSH2 0x12D PUSH2 0x7C JUMP JUMPDEST PUSH2 0x141 DUP2 PUSH2 0x13B DUP5 SLOAD PUSH2 0x90 JUMP JUMPDEST DUP5 PUSH2 0xC8 JUMP JUMPDEST PUSH1 0x20 DUP1 PUSH1 0x1F DUP4 GT PUSH1 0x1 DUP2 EQ PUSH2 0x174 JUMPI PUSH0 DUP5 ISZERO PUSH2 0x15D JUMPI POP DUP6 DUP4 ADD MLOAD JUMPDEST PUSH0 NOT PUSH1 0x3 DUP7 SWAP1 SHL SHR NOT AND PUSH1 0x1 DUP6 SWAP1 SHL OR DUP6 SSTORE PUSH2 0x1CB JUMP JUMPDEST PUSH0 DUP6 DUP2 MSTORE PUSH1 0x20 DUP2 KECCAK256 PUSH1 0x1F NOT DUP7 AND SWAP2 JUMPDEST DUP3 DUP2 LT ISZERO PUSH2 0x1A2 JUMPI DUP9 DUP7 ADD MLOAD DUP3 SSTORE SWAP5 DUP5 ADD SWAP5 PUSH1 0x1 SWAP1 SWAP2 ADD SWAP1 DUP5 ADD PUSH2 0x183 JUMP JUMPDEST POP DUP6 DUP3 LT ISZERO PUSH2 0x1BF JUMPI DUP8 DUP6 ADD MLOAD PUSH0 NOT PUSH1 0x3 DUP9 SWAP1 SHL PUSH1 0xF8 AND SHR NOT AND DUP2 SSTORE JUMPDEST POP POP PUSH1 0x1 DUP5 PUSH1 0x1 SHL ADD DUP6 SSTORE JUMPDEST POP POP POP POP POP POP JUMP JUMPDEST PUSH2 0x980 DUP1 PUSH2 0x1E0 PUSH0 CODECOPY PUSH0 RETURN INVALID PUSH1 0x80 PUSH1 0x40 MSTORE CALLVALUE DUP1 ISZERO PUSH2 0xF JUMPI PUSH0 DUP1 REVERT JUMPDEST POP PUSH1 0x4 CALLDATASIZE LT PUSH2 0xE5 JUMPI PUSH0 CALLDATALOAD PUSH1 0xE0 SHR DUP1 PUSH4 0x70A08231 GT PUSH2 0x88 JUMPI DUP1 PUSH4 0xA22CB465 GT PUSH2 0x63 JUMPI DUP1 PUSH4 0xA22CB465 EQ PUSH2 0x1DD JUMPI DUP1 PUSH4 0xB88D4FDE EQ PUSH2 0x1EB JUMPI DUP1 PUSH4 0xC6C17EC0 EQ PUSH2 0x1F9 JUMPI DUP1 PUSH4 0xD5B141E7 EQ PUSH2 0x20C JUMPI PUSH0 DUP1 REVERT JUMPDEST DUP1 PUSH4 0x70A08231 EQ PUSH2 0x195 JUMPI DUP1 PUSH4 0x95D89B41 EQ PUSH2 0x1C2 JUMPI DUP1 PUSH4 0x99071190 EQ PUSH2 0x1CA JUMPI PUSH0 DUP1 REVERT JUMPDEST DUP1 PUSH4 0x23B872DD GT PUSH2 0xC3 JUMPI DUP1 PUSH4 0x23B872DD EQ PUSH2 0x12F JUMPI DUP1 PUSH4 0x42842E0E EQ PUSH2 0x12F JUMPI DUP1 PUSH4 0x6352211E EQ PUSH2 0x142 JUMPI DUP1 PUSH4 0x6C8B703F EQ PUSH2 0x182 JUMPI PUSH0 DUP1 REVERT JUMPDEST DUP1 PUSH4 0x6FDDE03 EQ PUSH2 0xE9 JUMPI DUP1 PUSH4 0x95EA7B3 EQ PUSH2 0x107 JUMPI DUP1 PUSH4 0x20C5429B EQ PUSH2 0x11C JUMPI JUMPDEST PUSH0 DUP1 REVERT JUMPDEST PUSH2 0xF1 PUSH2 0x23E JUMP JUMPDEST PUSH1 0x40 MLOAD PUSH2 0xFE SWAP2 SWAP1 PUSH2 0x555 JUMP JUMPDEST PUSH1 0x40 MLOAD DUP1 SWAP2 SUB SWAP1 RETURN JUMPDEST PUSH2 0x11A PUSH2 0x115 CALLDATASIZE PUSH1 0x4 PUSH2 0x5BC JUMP JUMPDEST PUSH2 0x2C9 JUMP JUMPDEST STOP JUMPDEST PUSH2 0x11A PUSH2 0x12A CALLDATASIZE PUSH1 0x4 PUSH2 0x5E4 JUMP JUMPDEST PUSH2 0x316 JUMP JUMPDEST PUSH2 0x11A PUSH2 0x13D CALLDATASIZE PUSH1 0x4 PUSH2 0x5FB JUMP JUMPDEST PUSH2 0x3AD JUMP JUMPDEST PUSH2 0x16A PUSH2 0x150 CALLDATASIZE PUSH1 0x4 PUSH2 0x5E4 JUMP JUMPDEST PUSH1 0x3 PUSH1 0x20 MSTORE PUSH0 SWAP1 DUP2 MSTORE PUSH1 0x40 SWAP1 KECCAK256 SLOAD PUSH1 0x1 PUSH1 0x1 PUSH1 0xA0 SHL SUB AND DUP2 JUMP JUMPDEST PUSH1 0x40 MLOAD PUSH1 0x1 PUSH1 0x1 PUSH1 0xA0 SHL SUB SWAP1 SWAP2 AND DUP2 MSTORE PUSH1 0x20 ADD PUSH2 0xFE JUMP JUMPDEST PUSH2 0xF1 PUSH2 0x190 CALLDATASIZE PUSH1 0x4 PUSH2 0x5E4 JUMP JUMPDEST PUSH2 0x3F5 JUMP JUMPDEST PUSH2 0x1B4 PUSH2 0x1A3 CALLDATASIZE PUSH1 0x4 PUSH2 0x634 JUMP JUMPDEST PUSH1 0x4 PUSH1 0x20 MSTORE PUSH0 SWAP1 DUP2 MSTORE PUSH1 0x40 SWAP1 KECCAK256 SLOAD DUP2 JUMP JUMPDEST PUSH1 0x40 MLOAD SWAP1 DUP2 MSTORE PUSH1 0x20 ADD PUSH2 0xFE JUMP JUMPDEST PUSH2 0xF1 PUSH2 0x40D JUMP JUMPDEST PUSH2 0x1B4 PUSH2 0x1D8 CALLDATASIZE PUSH1 0x4 PUSH2 0x699 JUMP JUMPDEST PUSH2 0x41A JUMP JUMPDEST PUSH2 0x11A PUSH2 0x115 CALLDATASIZE PUSH1 0x4 PUSH2 0x714 JUMP JUMPDEST PUSH2 0x11A PUSH2 0x13D CALLDATASIZE PUSH1 0x4 PUSH2 0x74D JUMP JUMPDEST PUSH2 0xF1 PUSH2 0x207 CALLDATASIZE PUSH1 0x4 PUSH2 0x5E4 JUMP JUMPDEST PUSH2 0x53D JUMP JUMPDEST PUSH2 0x22E PUSH2 0x21A CALLDATASIZE PUSH1 0x4 PUSH2 0x5E4 JUMP JUMPDEST PUSH1 0x6 PUSH1 0x20 MSTORE PUSH0 SWAP1 DUP2 MSTORE PUSH1 0x40 SWAP1 KECCAK256 SLOAD PUSH1 0xFF AND DUP2 JUMP JUMPDEST PUSH1 0x40 MLOAD SWAP1 ISZERO ISZERO DUP2 MSTORE PUSH1 0x20 ADD PUSH2 0xFE JUMP JUMPDEST PUSH0 DUP1 SLOAD PUSH2 0x24A SWAP1 PUSH2 0x7A6 JUMP JUMPDEST DUP1 PUSH1 0x1F ADD PUSH1 0x20 DUP1 SWAP2 DIV MUL PUSH1 0x20 ADD PUSH1 0x40 MLOAD SWAP1 DUP2 ADD PUSH1 0x40 MSTORE DUP1 SWAP3 SWAP2 SWAP1 DUP2 DUP2 MSTORE PUSH1 0x20 ADD DUP3 DUP1 SLOAD PUSH2 0x276 SWAP1 PUSH2 0x7A6 JUMP JUMPDEST DUP1 ISZERO PUSH2 0x2C1 JUMPI DUP1 PUSH1 0x1F LT PUSH2 0x298 JUMPI PUSH2 0x100 DUP1 DUP4 SLOAD DIV MUL DUP4 MSTORE SWAP2 PUSH1 0x20 ADD SWAP2 PUSH2 0x2C1 JUMP JUMPDEST DUP3 ADD SWAP2 SWAP1 PUSH0 MSTORE PUSH1 0x20 PUSH0 KECCAK256 SWAP1 JUMPDEST DUP2 SLOAD DUP2 MSTORE SWAP1 PUSH1 0x1 ADD SWAP1 PUSH1 0x20 ADD DUP1 DUP4 GT PUSH2 0x2A4 JUMPI DUP3 SWAP1 SUB PUSH1 0x1F AND DUP3 ADD SWAP2 JUMPDEST POP POP POP POP POP DUP2 JUMP JUMPDEST PUSH1 0x40 MLOAD PUSH3 0x461BCD PUSH1 0xE5 SHL DUP2 MSTORE PUSH1 0x20 PUSH1 0x4 DUP3 ADD MSTORE PUSH1 0x1C PUSH1 0x24 DUP3 ADD MSTORE PUSH32 0x534F554C424F554E443A20617070726F76616C2064697361626C656400000000 PUSH1 0x44 DUP3 ADD MSTORE PUSH1 0x64 ADD JUMPDEST PUSH1 0x40 MLOAD DUP1 SWAP2 SUB SWAP1 REVERT JUMPDEST PUSH0 DUP2 DUP2 MSTORE PUSH1 0x3 PUSH1 0x20 MSTORE PUSH1 0x40 SWAP1 KECCAK256 SLOAD PUSH1 0x1 PUSH1 0x1 PUSH1 0xA0 SHL SUB AND PUSH2 0x36B JUMPI PUSH1 0x40 MLOAD PUSH3 0x461BCD PUSH1 0xE5 SHL DUP2 MSTORE PUSH1 0x20 PUSH1 0x4 DUP3 ADD MSTORE PUSH1 0xF PUSH1 0x24 DUP3 ADD MSTORE PUSH15 0x151BDAD95B881B9BDD08199BDD5B99 PUSH1 0x8A SHL PUSH1 0x44 DUP3 ADD MSTORE PUSH1 0x64 ADD PUSH2 0x30D JUMP JUMPDEST PUSH0 DUP2 DUP2 MSTORE PUSH1 0x6 PUSH1 0x20 MSTORE PUSH1 0x40 DUP1 DUP3 KECCAK256 DUP1 SLOAD PUSH1 0xFF NOT AND PUSH1 0x1 OR SWAP1 SSTORE MLOAD DUP3 SWAP2 PUSH32 0x61E27B0BFD8E18E6B92EC32CE1C28BB698D27BFE93E84C7E94D4DB0A3135C760 SWAP2 LOG2 POP JUMP JUMPDEST PUSH1 0x40 MLOAD PUSH3 0x461BCD PUSH1 0xE5 SHL DUP2 MSTORE PUSH1 0x20 PUSH1 0x4 DUP3 ADD MSTORE PUSH1 0x1C PUSH1 0x24 DUP3 ADD MSTORE PUSH32 0x534F554C424F554E443A207472616E736665722064697361626C656400000000 PUSH1 0x44 DUP3 ADD MSTORE PUSH1 0x64 ADD PUSH2 0x30D JUMP JUMPDEST PUSH1 0x7 PUSH1 0x20 MSTORE PUSH0 SWAP1 DUP2 MSTORE PUSH1 0x40 SWAP1 KECCAK256 DUP1 SLOAD PUSH2 0x24A SWAP1 PUSH2 0x7A6 JUMP JUMPDEST PUSH1 0x1 DUP1 SLOAD PUSH2 0x24A SWAP1 PUSH2 0x7A6 JUMP JUMPDEST PUSH0 PUSH1 0x1 PUSH1 0x1 PUSH1 0xA0 SHL SUB DUP7 AND PUSH2 0x460 JUMPI PUSH1 0x40 MLOAD PUSH3 0x461BCD PUSH1 0xE5 SHL DUP2 MSTORE PUSH1 0x20 PUSH1 0x4 DUP3 ADD MSTORE PUSH1 0xC PUSH1 0x24 DUP3 ADD MSTORE PUSH12 0x4D696E7420746F207A65726F PUSH1 0xA0 SHL PUSH1 0x44 DUP3 ADD MSTORE PUSH1 0x64 ADD PUSH2 0x30D JUMP JUMPDEST PUSH1 0x2 DUP1 SLOAD PUSH0 SWAP2 DUP3 PUSH2 0x470 DUP4 PUSH2 0x7DE JUMP JUMPDEST SWAP1 SWAP2 SSTORE POP PUSH0 DUP2 DUP2 MSTORE PUSH1 0x3 PUSH1 0x20 SWAP1 DUP2 MSTORE PUSH1 0x40 DUP1 DUP4 KECCAK256 DUP1 SLOAD PUSH1 0x1 PUSH1 0x1 PUSH1 0xA0 SHL SUB NOT AND PUSH1 0x1 PUSH1 0x1 PUSH1 0xA0 SHL SUB DUP14 AND SWAP1 DUP2 OR SWAP1 SWAP2 SSTORE DUP4 MSTORE PUSH1 0x4 SWAP1 SWAP2 MSTORE DUP2 KECCAK256 DUP1 SLOAD SWAP3 SWAP4 POP SWAP1 PUSH2 0x4B8 DUP4 PUSH2 0x7DE JUMP JUMPDEST SWAP1 SWAP2 SSTORE POP POP PUSH0 DUP2 DUP2 MSTORE PUSH1 0x5 PUSH1 0x20 MSTORE PUSH1 0x40 SWAP1 KECCAK256 PUSH2 0x4D5 DUP7 DUP9 DUP4 PUSH2 0x862 JUMP JUMPDEST POP PUSH0 DUP2 DUP2 MSTORE PUSH1 0x7 PUSH1 0x20 MSTORE PUSH1 0x40 SWAP1 KECCAK256 PUSH2 0x4EE DUP5 DUP7 DUP4 PUSH2 0x862 JUMP JUMPDEST POP DUP1 DUP8 PUSH1 0x1 PUSH1 0x1 PUSH1 0xA0 SHL SUB AND PUSH32 0xE7CD4CE7F2A465EDC730269A1305E8A48BAD821E8FB7E152EC413829C01A53C4 DUP9 DUP9 PUSH1 0x40 MLOAD PUSH2 0x52B SWAP3 SWAP2 SWAP1 PUSH2 0x91C JUMP JUMPDEST PUSH1 0x40 MLOAD DUP1 SWAP2 SUB SWAP1 LOG3 SWAP7 SWAP6 POP POP POP POP POP POP JUMP JUMPDEST PUSH1 0x5 PUSH1 0x20 MSTORE PUSH0 SWAP1 DUP2 MSTORE PUSH1 0x40 SWAP1 KECCAK256 DUP1 SLOAD PUSH2 0x24A SWAP1 PUSH2 0x7A6 JUMP JUMPDEST PUSH0 PUSH1 0x20 DUP1 DUP4 MSTORE DUP4 MLOAD DUP1 PUSH1 0x20 DUP6 ADD MSTORE PUSH0 JUMPDEST DUP2 DUP2 LT ISZERO PUSH2 0x581 JUMPI DUP6 DUP2 ADD DUP4 ADD MLOAD DUP6 DUP3 ADD PUSH1 0x40 ADD MSTORE DUP3 ADD PUSH2 0x565 JUMP JUMPDEST POP PUSH0 PUSH1 0x40 DUP3 DUP7 ADD ADD MSTORE PUSH1 0x40 PUSH1 0x1F NOT PUSH1 0x1F DUP4 ADD AND DUP6 ADD ADD SWAP3 POP POP POP SWAP3 SWAP2 POP POP JUMP JUMPDEST DUP1 CALLDATALOAD PUSH1 0x1 PUSH1 0x1 PUSH1 0xA0 SHL SUB DUP2 AND DUP2 EQ PUSH2 0x5B7 JUMPI PUSH0 DUP1 REVERT JUMPDEST SWAP2 SWAP1 POP JUMP JUMPDEST PUSH0 DUP1 PUSH1 0x40 DUP4 DUP6 SUB SLT ISZERO PUSH2 0x5CD JUMPI PUSH0 DUP1 REVERT JUMPDEST PUSH2 0x5D6 DUP4 PUSH2 0x5A1 JUMP JUMPDEST SWAP5 PUSH1 0x20 SWAP4 SWAP1 SWAP4 ADD CALLDATALOAD SWAP4 POP POP POP JUMP JUMPDEST PUSH0 PUSH1 0x20 DUP3 DUP5 SUB SLT ISZERO PUSH2 0x5F4 JUMPI PUSH0 DUP1 REVERT JUMPDEST POP CALLDATALOAD SWAP2 SWAP1 POP JUMP JUMPDEST PUSH0 DUP1 PUSH0 PUSH1 0x60 DUP5 DUP7 SUB SLT ISZERO PUSH2 0x60D JUMPI PUSH0 DUP1 REVERT JUMPDEST PUSH2 0x616 DUP5 PUSH2 0x5A1 JUMP JUMPDEST SWAP3 POP PUSH2 0x624 PUSH1 0x20 DUP6 ADD PUSH2 0x5A1 JUMP JUMPDEST SWAP2 POP PUSH1 0x40 DUP5 ADD CALLDATALOAD SWAP1 POP SWAP3 POP SWAP3 POP SWAP3 JUMP JUMPDEST PUSH0 PUSH1 0x20 DUP3 DUP5 SUB SLT ISZERO PUSH2 0x644 JUMPI PUSH0 DUP1 REVERT JUMPDEST PUSH2 0x64D DUP3 PUSH2 0x5A1 JUMP JUMPDEST SWAP4 SWAP3 POP POP POP JUMP JUMPDEST PUSH0 DUP1 DUP4 PUSH1 0x1F DUP5 ADD SLT PUSH2 0x664 JUMPI PUSH0 DUP1 REVERT JUMPDEST POP DUP2 CALLDATALOAD PUSH8 0xFFFFFFFFFFFFFFFF DUP2 GT ISZERO PUSH2 0x67B JUMPI PUSH0 DUP1 REVERT JUMPDEST PUSH1 0x20 DUP4 ADD SWAP2 POP DUP4 PUSH1 0x20 DUP3 DUP6 ADD ADD GT ISZERO PUSH2 0x692 JUMPI PUSH0 DUP1 REVERT JUMPDEST SWAP3 POP SWAP3 SWAP1 POP JUMP JUMPDEST PUSH0 DUP1 PUSH0 DUP1 PUSH0 PUSH1 0x60 DUP7 DUP9 SUB SLT ISZERO PUSH2 0x6AD JUMPI PUSH0 DUP1 REVERT JUMPDEST PUSH2 0x6B6 DUP7 PUSH2 0x5A1 JUMP JUMPDEST SWAP5 POP PUSH1 0x20 DUP7 ADD CALLDATALOAD PUSH8 0xFFFFFFFFFFFFFFFF DUP1 DUP3 GT ISZERO PUSH2 0x6D2 JUMPI PUSH0 DUP1 REVERT JUMPDEST PUSH2 0x6DE DUP10 DUP4 DUP11 ADD PUSH2 0x654 JUMP JUMPDEST SWAP1 SWAP7 POP SWAP5 POP PUSH1 0x40 DUP9 ADD CALLDATALOAD SWAP2 POP DUP1 DUP3 GT ISZERO PUSH2 0x6F6 JUMPI PUSH0 DUP1 REVERT JUMPDEST POP PUSH2 0x703 DUP9 DUP3 DUP10 ADD PUSH2 0x654 JUMP JUMPDEST SWAP7 SWAP10 SWAP6 SWAP9 POP SWAP4 SWAP7 POP SWAP3 SWAP5 SWAP4 SWAP3 POP POP POP JUMP JUMPDEST PUSH0 DUP1 PUSH1 0x40 DUP4 DUP6 SUB SLT ISZERO PUSH2 0x725 JUMPI PUSH0 DUP1 REVERT JUMPDEST PUSH2 0x72E DUP4 PUSH2 0x5A1 JUMP JUMPDEST SWAP2 POP PUSH1 0x20 DUP4 ADD CALLDATALOAD DUP1 ISZERO ISZERO DUP2 EQ PUSH2 0x742 JUMPI PUSH0 DUP1 REVERT JUMPDEST DUP1 SWAP2 POP POP SWAP3 POP SWAP3 SWAP1 POP JUMP JUMPDEST PUSH0 DUP1 PUSH0 DUP1 PUSH0 PUSH1 0x80 DUP7 DUP9 SUB SLT ISZERO PUSH2 0x761 JUMPI PUSH0 DUP1 REVERT JUMPDEST PUSH2 0x76A DUP7 PUSH2 0x5A1 JUMP JUMPDEST SWAP5 POP PUSH2 0x778 PUSH1 0x20 DUP8 ADD PUSH2 0x5A1 JUMP JUMPDEST SWAP4 POP PUSH1 0x40 DUP7 ADD CALLDATALOAD SWAP3 POP PUSH1 0x60 DUP7 ADD CALLDATALOAD PUSH8 0xFFFFFFFFFFFFFFFF DUP2 GT ISZERO PUSH2 0x79A JUMPI PUSH0 DUP1 REVERT JUMPDEST PUSH2 0x703 DUP9 DUP3 DUP10 ADD PUSH2 0x654 JUMP JUMPDEST PUSH1 0x1 DUP2 DUP2 SHR SWAP1 DUP3 AND DUP1 PUSH2 0x7BA JUMPI PUSH1 0x7F DUP3 AND SWAP2 POP JUMPDEST PUSH1 0x20 DUP3 LT DUP2 SUB PUSH2 0x7D8 JUMPI PUSH4 0x4E487B71 PUSH1 0xE0 SHL PUSH0 MSTORE PUSH1 0x22 PUSH1 0x4 MSTORE PUSH1 0x24 PUSH0 REVERT JUMPDEST POP SWAP2 SWAP1 POP JUMP JUMPDEST PUSH0 PUSH1 0x1 DUP3 ADD PUSH2 0x7FB JUMPI PUSH4 0x4E487B71 PUSH1 0xE0 SHL PUSH0 MSTORE PUSH1 0x11 PUSH1 0x4 MSTORE PUSH1 0x24 PUSH0 REVERT JUMPDEST POP PUSH1 0x1 ADD SWAP1 JUMP JUMPDEST PUSH4 0x4E487B71 PUSH1 0xE0 SHL PUSH0 MSTORE PUSH1 0x41 PUSH1 0x4 MSTORE PUSH1 0x24 PUSH0 REVERT JUMPDEST PUSH1 0x1F DUP3 GT ISZERO PUSH2 0x85D JUMPI DUP1 PUSH0 MSTORE PUSH1 0x20 PUSH0 KECCAK256 PUSH1 0x1F DUP5 ADD PUSH1 0x5 SHR DUP2 ADD PUSH1 0x20 DUP6 LT ISZERO PUSH2 0x83B JUMPI POP DUP1 JUMPDEST PUSH1 0x1F DUP5 ADD PUSH1 0x5 SHR DUP3 ADD SWAP2 POP JUMPDEST DUP2 DUP2 LT ISZERO PUSH2 0x85A JUMPI PUSH0 DUP2 SSTORE PUSH1 0x1 ADD PUSH2 0x847 JUMP JUMPDEST POP POP JUMPDEST POP POP POP JUMP JUMPDEST PUSH8 0xFFFFFFFFFFFFFFFF DUP4 GT ISZERO PUSH2 0x87A JUMPI PUSH2 0x87A PUSH2 0x802 JUMP JUMPDEST PUSH2 0x88E DUP4 PUSH2 0x888 DUP4 SLOAD PUSH2 0x7A6 JUMP JUMPDEST DUP4 PUSH2 0x816 JUMP JUMPDEST PUSH0 PUSH1 0x1F DUP5 GT PUSH1 0x1 DUP2 EQ PUSH2 0x8BF JUMPI PUSH0 DUP6 ISZERO PUSH2 0x8A8 JUMPI POP DUP4 DUP3 ADD CALLDATALOAD JUMPDEST PUSH0 NOT PUSH1 0x3 DUP8 SWAP1 SHL SHR NOT AND PUSH1 0x1 DUP7 SWAP1 SHL OR DUP4 SSTORE PUSH2 0x85A JUMP JUMPDEST PUSH0 DUP4 DUP2 MSTORE PUSH1 0x20 DUP2 KECCAK256 PUSH1 0x1F NOT DUP8 AND SWAP2 JUMPDEST DUP3 DUP2 LT ISZERO PUSH2 0x8EE JUMPI DUP7 DUP6 ADD CALLDATALOAD DUP3 SSTORE PUSH1 0x20 SWAP5 DUP6 ADD SWAP5 PUSH1 0x1 SWAP1 SWAP3 ADD SWAP2 ADD PUSH2 0x8CE JUMP JUMPDEST POP DUP7 DUP3 LT ISZERO PUSH2 0x90A JUMPI PUSH0 NOT PUSH1 0xF8 DUP9 PUSH1 0x3 SHL AND SHR NOT DUP5 DUP8 ADD CALLDATALOAD AND DUP2 SSTORE JUMPDEST POP POP PUSH1 0x1 DUP6 PUSH1 0x1 SHL ADD DUP4 SSTORE POP POP POP POP POP JUMP JUMPDEST PUSH1 0x20 DUP2 MSTORE DUP2 PUSH1 0x20 DUP3 ADD MSTORE DUP2 DUP4 PUSH1 0x40 DUP4 ADD CALLDATACOPY PUSH0 DUP2 DUP4 ADD PUSH1 0x40 SWAP1 DUP2 ADD SWAP2 SWAP1 SWAP2 MSTORE PUSH1 0x1F SWAP1 SWAP3 ADD PUSH1 0x1F NOT AND ADD ADD SWAP2 SWAP1 POP JUMP INVALID LOG2 PUSH5 0x6970667358 0x22 SLT KECCAK256 RETURNDATACOPY PUSH30 0x4D4C65785245FBF16244195CAB90C1F36E1095EFB4FD610B2539D2241D92 PUSH5 0x736F6C6343 STOP ADDMOD XOR STOP CALLER "},"methodIdentifiers":{"approve(address,uint256)":"095ea7b3","balanceOf(address)":"70a08231","domainOf(uint256)":"c6c17ec0","mint(address,string,string)":"99071190","name()":"06fdde03","ownerOf(uint256)":"6352211e","revoke(uint256)":"20c5429b","revoked(uint256)":"d5b141e7","safeTransferFrom(address,address,uint256)":"42842e0e","safeTransferFrom(address,address,uint256,bytes)":"b88d4fde","setApprovalForAll(address,bool)":"a22cb465","symbol()":"95d89b41","tokenURIs(uint256)":"6c8b703f","transferFrom(address,address,uint256)":"23b872dd"}}}}}