{"contracts/CredentialVault.sol":{"CredentialVault":{"abi":[{"anonymous":false,"inputs":[{"indexed":true,"internalType":"address","name":"holder","type":"address"},{"indexed":true,"internalType":"bytes32","name":"vcId","type":"bytes32"},{"indexed":true,"internalType":"address","name":"issuer","type":"address"}],"name":"CredentialIssued","type":"event"},{"anonymous":false,"inputs":[{"indexed":true,"internalType":"address","name":"holder","type":"address"},{"indexed":true,"internalType":"bytes32","name":"vcId","type":"bytes32"}],"name":"CredentialRevoked","type":"event"},{"inputs":[{"internalType":"address","name":"holder","type":"address"},{"internalType":"bytes32","name":"vcId","type":"bytes32"},{"internalType":"string","name":"vcType","type":"string"},{"internalType":"bytes32","name":"vcHash","type":"bytes32"},{"internalType":"string","name":"ipfsURI","type":"string"}],"name":"issueCredential","outputs":[],"stateMutability":"nonpayable","type":"function"},{"inputs":[{"internalType":"address","name":"holder","type":"address"},{"internalType":"bytes32","name":"vcId","type":"bytes32"}],"name":"revokeCredential","outputs":[],"stateMutability":"nonpayable","type":"function"},{"inputs":[{"internalType":"address","name":"","type":"address"},{"internalType":"bytes32","name":"","type":"bytes32"}],"name":"vault","outputs":[{"internalType":"string","name":"vcType","type":"string"},{"internalType":"bytes32","name":"vcHash","type":"bytes32"},{"internalType":"string","name":"ipfsURI","type":"string"},{"internalType":"uint64","name":"issuedAt","type":"uint64"},{"internalType":"bool","name":"revoked","type":"bool"},{"internalType":"address","name":"issuer","type":"address"}],"stateMutability":"view","type":"function"}],"evm":{"bytecode":{"linkReferences":{},"object":"608060405234801561000f575f80fd5b506107ba8061001d5f395ff3fe608060405234801561000f575f80fd5b506004361061003f575f3560e01c8063b7773cc914610043578063e5dca78e14610071578063eb148fee14610086575b5f80fd5b610056610051366004610493565b610099565b604051610068969594939291906104fe565b60405180910390f35b61008461007f366004610493565b6101fc565b005b61008461009436600461059f565b6102d9565b5f6020818152928152604080822090935290815220805481906100bb9061062c565b80601f01602080910402602001604051908101604052809291908181526020018280546100e79061062c565b80156101325780601f1061010957610100808354040283529160200191610132565b820191905f5260205f20905b81548152906001019060200180831161011557829003601f168201915b50505050509080600101549080600201805461014d9061062c565b80601f01602080910402602001604051908101604052809291908181526020018280546101799061062c565b80156101c45780601f1061019b576101008083540402835291602001916101c4565b820191905f5260205f20905b8154815290600101906020018083116101a757829003601f168201915b5050506003909301549192505067ffffffffffffffff81169060ff600160401b820416906001600160a01b03600160481b9091041686565b6001600160a01b038281165f90815260208181526040808320858452909152902060030154600160481b90041633146102745760405162461bcd60e51b81526020600482015260166024820152754f6e6c79206973737565722063616e207265766f6b6560501b604482015260640160405180910390fd5b6001600160a01b0382165f81815260208181526040808320858452909152808220600301805468ff00000000000000001916600160401b179055518392917f3026993f4e06fc52b2f2f8ee2035821b9b29172ab964da353b6ba3c89133727e91a35050565b6040518060c0016040528086868080601f0160208091040260200160405190810160405280939291908181526020018383808284375f92019190915250505090825250602080820186905260408051601f860183900483028101830182528581529201919085908590819084018382808284375f92018290525093855250505067ffffffffffffffff42166020808401919091526040808401839052336060909401939093526001600160a01b038b1682528181528282208a8352905220815181906103a590826106c4565b5060208201516001820155604082015160028201906103c490826106c4565b5060608201516003919091018054608084015160a09094015167ffffffffffffffff90931668ffffffffffffffffff1990911617600160401b93151593909302929092177fffffff0000000000000000000000000000000000000000ffffffffffffffffff16600160481b6001600160a01b03928316021790915560405133918891908a16907f4363709704d3f6b8d0a65f1f3e02c640ae24b87d9115262e46ae7f3a21d471db905f90a450505050505050565b80356001600160a01b038116811461048e575f80fd5b919050565b5f80604083850312156104a4575f80fd5b6104ad83610478565b946020939093013593505050565b5f81518084525f5b818110156104df576020818501810151868301820152016104c3565b505f602082860101526020601f19601f83011685010191505092915050565b60c081525f61051060c08301896104bb565b876020840152828103604084015261052881886104bb565b67ffffffffffffffff969096166060840152505091151560808301526001600160a01b031660a0909101529392505050565b5f8083601f84011261056a575f80fd5b50813567ffffffffffffffff811115610581575f80fd5b602083019150836020828501011115610598575f80fd5b9250929050565b5f805f805f805f60a0888a0312156105b5575f80fd5b6105be88610478565b965060208801359550604088013567ffffffffffffffff808211156105e1575f80fd5b6105ed8b838c0161055a565b909750955060608a0135945060808a013591508082111561060c575f80fd5b506106198a828b0161055a565b989b979a50959850939692959293505050565b600181811c9082168061064057607f821691505b60208210810361065e57634e487b7160e01b5f52602260045260245ffd5b50919050565b634e487b7160e01b5f52604160045260245ffd5b601f8211156106bf57805f5260205f20601f840160051c8101602085101561069d5750805b601f840160051c820191505b818110156106bc575f81556001016106a9565b50505b505050565b815167ffffffffffffffff8111156106de576106de610664565b6106f2816106ec845461062c565b84610678565b602080601f831160018114610725575f841561070e5750858301515b5f19600386901b1c1916600185901b17855561077c565b5f85815260208120601f198616915b8281101561075357888601518255948401946001909101908401610734565b508582101561077057878501515f19600388901b60f8161c191681555b505060018460011b0185555b50505050505056fea26469706673582212201e9044c9c8611d0474881fa07ce269207935c24c13e9b314382c3333dd657dd064736f6c63430008180033","opcodes":"PUSH1 0x80 PUSH1 0x40 MSTORE CALLVALUE DUP1 ISZERO PUSH2 0xF JUMPI PUSH0 DUP1 REVERT JUMPDEST POP PUSH2 0x7BA DUP1 PUSH2 0x1D PUSH0 CODECOPY PUSH0 RETURN INVALID PUSH1 0x80 PUSH1 0x40 MSTORE CALLVALUE DUP1 ISZERO PUSH2 0xF JUMPI PUSH0 DUP1 REVERT JUMPDEST POP PUSH1 0x4 CALLDATASIZE LT PUSH2 0x3F JUMPI PUSH0 CALLDATALOAD PUSH1 0xE0 SHR DUP1 PUSH4 0xB7773CC9 EQ PUSH2 0x43 JUMPI DUP1 PUSH4 0xE5DCA78E EQ PUSH2 0x71 JUMPI DUP1 PUSH4 0xEB148FEE EQ PUSH2 0x86 JUMPI JUMPDEST PUSH0 DUP1 REVERT JUMPDEST PUSH2 0x56 PUSH2 0x51 CALLDATASIZE PUSH1 0x4 PUSH2 0x493 JUMP JUMPDEST PUSH2 0x99 JUMP JUMPDEST PUSH1 0x40 MLOAD PUSH2 0x68 SWAP7 SWAP6 SWAP5 SWAP4 SWAP3 SWAP2 SWAP1 PUSH2 0x4FE JUMP JUMPDEST PUSH1 0x40 MLOAD DUP1 SWAP2 SUB SWAP1 RETURN JUMPDEST PUSH2 0x84 PUSH2 0x7F CALLDATASIZE PUSH1 0x4 PUSH2 0x493 JUMP JUMPDEST PUSH2 0x1FC JUMP JUMPDEST STOP JUMPDEST PUSH2 0x84 PUSH2 0x94 CALLDATASIZE PUSH1 0x4 PUSH2 0x59F JUMP JUMPDEST PUSH2 0x2D9 JUMP JUMPDEST PUSH0 PUSH1 0x20 DUP2 DUP2 MSTORE SWAP3 DUP2 MSTORE PUSH1 0x40 DUP1 DUP3 KECCAK256 SWAP1 SWAP4 MSTORE SWAP1 DUP2 MSTORE KECCAK256 DUP1 SLOAD DUP2 SWAP1 PUSH2 0xBB SWAP1 PUSH2 0x62C JUMP JUMPDEST DUP1 PUSH1 0x1F ADD PUSH1 0x20 DUP1 SWAP2 DIV MUL PUSH1 0x20 ADD PUSH1 0x40 MLOAD SWAP1 DUP2 ADD PUSH1 0x40 MSTORE DUP1 SWAP3 SWAP2 SWAP1 DUP2 DUP2 MSTORE PUSH1 0x20 ADD DUP3 DUP1 SLOAD PUSH2 0xE7 SWAP1 PUSH2 0x62C JUMP JUMPDEST DUP1 ISZERO PUSH2 0x132 JUMPI DUP1 PUSH1 0x1F LT PUSH2 0x109 JUMPI PUSH2 0x100 DUP1 DUP4 SLOAD DIV MUL DUP4 MSTORE SWAP2 PUSH1 0x20 ADD SWAP2 PUSH2 0x132 JUMP JUMPDEST DUP3 ADD SWAP2 SWAP1 PUSH0 MSTORE PUSH1 0x20 PUSH0 KECCAK256 SWAP1 JUMPDEST DUP2 SLOAD DUP2 MSTORE SWAP1 PUSH1 0x1 ADD SWAP1 PUSH1 0x20 ADD DUP1 DUP4 GT PUSH2 0x115 JUMPI DUP3 SWAP1 SUB PUSH1 0x1F AND DUP3 ADD SWAP2 JUMPDEST POP POP POP POP POP SWAP1 DUP1 PUSH1 0x1 ADD SLOAD SWAP1 DUP1 PUSH1 0x2 ADD DUP1 SLOAD PUSH2 0x14D SWAP1 PUSH2 0x62C JUMP JUMPDEST DUP1 PUSH1 0x1F ADD PUSH1 0x20 DUP1 SWAP2 DIV MUL PUSH1 0x20 ADD PUSH1 0x40 MLOAD SWAP1 DUP2 ADD PUSH1 0x40 MSTORE DUP1 SWAP3 SWAP2 SWAP1 DUP2 DUP2 MSTORE PUSH1 0x20 ADD DUP3 DUP1 SLOAD PUSH2 0x179 SWAP1 PUSH2 0x62C JUMP JUMPDEST DUP1 ISZERO PUSH2 0x1C4 JUMPI DUP1 PUSH1 0x1F LT PUSH2 0x19B JUMPI PUSH2 0x100 DUP1 DUP4 SLOAD DIV MUL DUP4 MSTORE SWAP2 PUSH1 0x20 ADD SWAP2 PUSH2 0x1C4 JUMP JUMPDEST DUP3 ADD SWAP2 SWAP1 PUSH0 MSTORE PUSH1 0x20 PUSH0 KECCAK256 SWAP1 JUMPDEST DUP2 SLOAD DUP2 MSTORE SWAP1 PUSH1 0x1 ADD SWAP1 PUSH1 0x20 ADD DUP1 DUP4 GT PUSH2 0x1A7 JUMPI DUP3 SWAP1 SUB PUSH1 0x1F AND DUP3 ADD SWAP2 JUMPDEST POP POP POP PUSH1 0x3 SWAP1 SWAP4 ADD SLOAD SWAP2 SWAP3 POP POP PUSH8 0xFFFFFFFFFFFFFFFF DUP2 AND SWAP1 PUSH1 0xFF PUSH1 0x1 PUSH1 0x40 SHL DUP3 DIV AND SWAP1 PUSH1 0x1 PUSH1 0x1 PUSH1 0xA0 SHL SUB PUSH1 0x1 PUSH1 0x48 SHL SWAP1 SWAP2 DIV AND DUP7 JUMP JUMPDEST PUSH1 0x1 PUSH1 0x1 PUSH1 0xA0 SHL SUB DUP3 DUP2 AND PUSH0 SWAP1 DUP2 MSTORE PUSH1 0x20 DUP2 DUP2 MSTORE PUSH1 0x40 DUP1 DUP4 KECCAK256 DUP6 DUP5 MSTORE SWAP1 SWAP2 MSTORE SWAP1 KECCAK256 PUSH1 0x3 ADD SLOAD PUSH1 0x1 PUSH1 0x48 SHL SWAP1 DIV AND CALLER EQ PUSH2 0x274 JUMPI PUSH1 0x40 MLOAD PUSH3 0x461BCD PUSH1 0xE5 SHL DUP2 MSTORE PUSH1 0x20 PUSH1 0x4 DUP3 ADD MSTORE PUSH1 0x16 PUSH1 0x24 DUP3 ADD MSTORE PUSH22 0x4F6E6C79206973737565722063616E207265766F6B65 PUSH1 0x50 SHL PUSH1 0x44 DUP3 ADD MSTORE PUSH1 0x64 ADD PUSH1 0x40 MLOAD DUP1 SWAP2 SUB SWAP1 REVERT JUMPDEST PUSH1 0x1 PUSH1 0x1 PUSH1 0xA0 SHL SUB DUP3 AND PUSH0 DUP2 DUP2 MSTORE PUSH1 0x20 DUP2 DUP2 MSTORE PUSH1 0x40 DUP1 DUP4 KECCAK256 DUP6 DUP5 MSTORE SWAP1 SWAP2 MSTORE DUP1 DUP3 KECCAK256 PUSH1 0x3 ADD DUP1 SLOAD PUSH9 0xFF0000000000000000 NOT AND PUSH1 0x1 PUSH1 0x40 SHL OR SWAP1 SSTORE MLOAD DUP4 SWAP3 SWAP2 PUSH32 0x3026993F4E06FC52B2F2F8EE2035821B9B29172AB964DA353B6BA3C89133727E SWAP2 LOG3 POP POP JUMP JUMPDEST PUSH1 0x40 MLOAD DUP1 PUSH1 0xC0 ADD PUSH1 0x40 MSTORE DUP1 DUP7 DUP7 DUP1 DUP1 PUSH1 0x1F ADD PUSH1 0x20 DUP1 SWAP2 DIV MUL PUSH1 0x20 ADD PUSH1 0x40 MLOAD SWAP1 DUP2 ADD PUSH1 0x40 MSTORE DUP1 SWAP4 SWAP3 SWAP2 SWAP1 DUP2 DUP2 MSTORE PUSH1 0x20 ADD DUP4 DUP4 DUP1 DUP3 DUP5 CALLDATACOPY PUSH0 SWAP3 ADD SWAP2 SWAP1 SWAP2 MSTORE POP POP POP SWAP1 DUP3 MSTORE POP PUSH1 0x20 DUP1 DUP3 ADD DUP7 SWAP1 MSTORE PUSH1 0x40 DUP1 MLOAD PUSH1 0x1F DUP7 ADD DUP4 SWAP1 DIV DUP4 MUL DUP2 ADD DUP4 ADD DUP3 MSTORE DUP6 DUP2 MSTORE SWAP3 ADD SWAP2 SWAP1 DUP6 SWAP1 DUP6 SWAP1 DUP2 SWAP1 DUP5 ADD DUP4 DUP3 DUP1 DUP3 DUP5 CALLDATACOPY PUSH0 SWAP3 ADD DUP3 SWAP1 MSTORE POP SWAP4 DUP6 MSTORE POP POP POP PUSH8 0xFFFFFFFFFFFFFFFF TIMESTAMP AND PUSH1 0x20 DUP1 DUP5 ADD SWAP2 SWAP1 SWAP2 MSTORE PUSH1 0x40 DUP1 DUP5 ADD DUP4 SWAP1 MSTORE CALLER PUSH1 0x60 SWAP1 SWAP5 ADD SWAP4 SWAP1 SWAP4 MSTORE PUSH1 0x1 PUSH1 0x1 PUSH1 0xA0 SHL SUB DUP12 AND DUP3 MSTORE DUP2 DUP2 MSTORE DUP3 DUP3 KECCAK256 DUP11 DUP4 MSTORE SWAP1 MSTORE KECCAK256 DUP2 MLOAD DUP2 SWAP1 PUSH2 0x3A5 SWAP1 DUP3 PUSH2 0x6C4 JUMP JUMPDEST POP PUSH1 0x20 DUP3 ADD MLOAD PUSH1 0x1 DUP3 ADD SSTORE PUSH1 0x40 DUP3 ADD MLOAD PUSH1 0x2 DUP3 ADD SWAP1 PUSH2 0x3C4 SWAP1 DUP3 PUSH2 0x6C4 JUMP JUMPDEST POP PUSH1 0x60 DUP3 ADD MLOAD PUSH1 0x3 SWAP2 SWAP1 SWAP2 ADD DUP1 SLOAD PUSH1 0x80 DUP5 ADD MLOAD PUSH1 0xA0 SWAP1 SWAP5 ADD MLOAD PUSH8 0xFFFFFFFFFFFFFFFF SWAP1 SWAP4 AND PUSH9 0xFFFFFFFFFFFFFFFFFF NOT SWAP1 SWAP2 AND OR PUSH1 0x1 PUSH1 0x40 SHL SWAP4 ISZERO ISZERO SWAP4 SWAP1 SWAP4 MUL SWAP3 SWAP1 SWAP3 OR PUSH32 0xFFFFFF0000000000000000000000000000000000000000FFFFFFFFFFFFFFFFFF AND PUSH1 0x1 PUSH1 0x48 SHL PUSH1 0x1 PUSH1 0x1 PUSH1 0xA0 SHL SUB SWAP3 DUP4 AND MUL OR SWAP1 SWAP2 SSTORE PUSH1 0x40 MLOAD CALLER SWAP2 DUP9 SWAP2 SWAP1 DUP11 AND SWAP1 PUSH32 0x4363709704D3F6B8D0A65F1F3E02C640AE24B87D9115262E46AE7F3A21D471DB SWAP1 PUSH0 SWAP1 LOG4 POP POP POP POP POP POP POP JUMP JUMPDEST DUP1 CALLDATALOAD PUSH1 0x1 PUSH1 0x1 PUSH1 0xA0 SHL SUB DUP2 AND DUP2 EQ PUSH2 0x48E JUMPI PUSH0 DUP1 REVERT JUMPDEST SWAP2 SWAP1 POP JUMP JUMPDEST PUSH0 DUP1 PUSH1 0x40 DUP4 DUP6 SUB SLT ISZERO PUSH2 0x4A4 JUMPI PUSH0 DUP1 REVERT JUMPDEST PUSH2 0x4AD DUP4 PUSH2 0x478 JUMP JUMPDEST SWAP5 PUSH1 0x20 SWAP4 SWAP1 SWAP4 ADD CALLDATALOAD SWAP4 POP POP POP JUMP JUMPDEST PUSH0 DUP2 MLOAD DUP1 DUP5 MSTORE PUSH0 JUMPDEST DUP2 DUP2 LT ISZERO PUSH2 0x4DF JUMPI PUSH1 0x20 DUP2 DUP6 ADD DUP2 ADD MLOAD DUP7 DUP4 ADD DUP3 ADD MSTORE ADD PUSH2 0x4C3 JUMP JUMPDEST POP PUSH0 PUSH1 0x20 DUP3 DUP7 ADD ADD MSTORE PUSH1 0x20 PUSH1 0x1F NOT PUSH1 0x1F DUP4 ADD AND DUP6 ADD ADD SWAP2 POP POP SWAP3 SWAP2 POP POP JUMP JUMPDEST PUSH1 0xC0 DUP2 MSTORE PUSH0 PUSH2 0x510 PUSH1 0xC0 DUP4 ADD DUP10 PUSH2 0x4BB JUMP JUMPDEST DUP8 PUSH1 0x20 DUP5 ADD MSTORE DUP3 DUP2 SUB PUSH1 0x40 DUP5 ADD MSTORE PUSH2 0x528 DUP2 DUP9 PUSH2 0x4BB JUMP JUMPDEST PUSH8 0xFFFFFFFFFFFFFFFF SWAP7 SWAP1 SWAP7 AND PUSH1 0x60 DUP5 ADD MSTORE POP POP SWAP2 ISZERO ISZERO PUSH1 0x80 DUP4 ADD MSTORE PUSH1 0x1 PUSH1 0x1 PUSH1 0xA0 SHL SUB AND PUSH1 0xA0 SWAP1 SWAP2 ADD MSTORE SWAP4 SWAP3 POP POP POP JUMP JUMPDEST PUSH0 DUP1 DUP4 PUSH1 0x1F DUP5 ADD SLT PUSH2 0x56A JUMPI PUSH0 DUP1 REVERT JUMPDEST POP DUP2 CALLDATALOAD PUSH8 0xFFFFFFFFFFFFFFFF DUP2 GT ISZERO PUSH2 0x581 JUMPI PUSH0 DUP1 REVERT JUMPDEST PUSH1 0x20 DUP4 ADD SWAP2 POP DUP4 PUSH1 0x20 DUP3 DUP6 ADD ADD GT ISZERO PUSH2 0x598 JUMPI PUSH0 DUP1 REVERT JUMPDEST SWAP3 POP SWAP3 SWAP1 POP JUMP JUMPDEST PUSH0 DUP1 PUSH0 DUP1 PUSH0 DUP1 PUSH0 PUSH1 0xA0 DUP9 DUP11 SUB SLT ISZERO PUSH2 0x5B5 JUMPI PUSH0 DUP1 REVERT JUMPDEST PUSH2 0x5BE DUP9 PUSH2 0x478 JUMP JUMPDEST SWAP7 POP PUSH1 0x20 DUP9 ADD CALLDATALOAD SWAP6 POP PUSH1 0x40 DUP9 ADD CALLDATALOAD PUSH8 0xFFFFFFFFFFFFFFFF DUP1 DUP3 GT ISZERO PUSH2 0x5E1 JUMPI PUSH0 DUP1 REVERT JUMPDEST PUSH2 0x5ED DUP12 DUP4 DUP13 ADD PUSH2 0x55A JUMP JUMPDEST SWAP1 SWAP8 POP SWAP6 POP PUSH1 0x60 DUP11 ADD CALLDATALOAD SWAP5 POP PUSH1 0x80 DUP11 ADD CALLDATALOAD SWAP2 POP DUP1 DUP3 GT ISZERO PUSH2 0x60C JUMPI PUSH0 DUP1 REVERT JUMPDEST POP PUSH2 0x619 DUP11 DUP3 DUP12 ADD PUSH2 0x55A JUMP JUMPDEST SWAP9 SWAP12 SWAP8 SWAP11 POP SWAP6 SWAP9 POP SWAP4 SWAP7 SWAP3 SWAP6 SWAP3 SWAP4 POP POP POP JUMP JUMPDEST PUSH1 0x1 DUP2 DUP2 SHR SWAP1 DUP3 AND DUP1 PUSH2 0x640 JUMPI PUSH1 0x7F DUP3 AND SWAP2 POP JUMPDEST PUSH1 0x20 DUP3 LT DUP2 SUB PUSH2 0x65E JUMPI PUSH4 0x4E487B71 PUSH1 0xE0 SHL PUSH0 MSTORE PUSH1 0x22 PUSH1 0x4 MSTORE PUSH1 0x24 PUSH0 REVERT JUMPDEST POP SWAP2 SWAP1 POP JUMP JUMPDEST PUSH4 0x4E487B71 PUSH1 0xE0 SHL PUSH0 MSTORE PUSH1 0x41 PUSH1 0x4 MSTORE PUSH1 0x24 PUSH0 REVERT JUMPDEST PUSH1 0x1F DUP3 GT ISZERO PUSH2 0x6BF JUMPI DUP1 PUSH0 MSTORE PUSH1 0x20 PUSH0 KECCAK256 PUSH1 0x1F DUP5 ADD PUSH1 0x5 SHR DUP2 ADD PUSH1 0x20 DUP6 LT ISZERO PUSH2 0x69D JUMPI POP DUP1 JUMPDEST PUSH1 0x1F DUP5 ADD PUSH1 0x5 SHR DUP3 ADD SWAP2 POP JUMPDEST DUP2 DUP2 LT ISZERO PUSH2 0x6BC JUMPI PUSH0 DUP2 SSTORE PUSH1 0x1 ADD PUSH2 0x6A9 JUMP JUMPDEST POP POP JUMPDEST POP POP POP JUMP JUMPDEST DUP2 MLOAD PUSH8 0xFFFFFFFFFFFFFFFF DUP2 GT ISZERO PUSH2 0x6DE JUMPI PUSH2 0x6DE PUSH2 0x664 JUMP JUMPDEST PUSH2 0x6F2 DUP2 PUSH2 0x6EC DUP5 SLOAD PUSH2 0x62C JUMP JUMPDEST DUP5 PUSH2 0x678 JUMP JUMPDEST PUSH1 0x20 DUP1 PUSH1 0x1F DUP4 GT PUSH1 0x1 DUP2 EQ PUSH2 0x725 JUMPI PUSH0 DUP5 ISZERO PUSH2 0x70E JUMPI POP DUP6 DUP4 ADD MLOAD JUMPDEST PUSH0 NOT PUSH1 0x3 DUP7 SWAP1 SHL SHR NOT AND PUSH1 0x1 DUP6 SWAP1 SHL OR DUP6 SSTORE PUSH2 0x77C JUMP JUMPDEST PUSH0 DUP6 DUP2 MSTORE PUSH1 0x20 DUP2 KECCAK256 PUSH1 0x1F NOT DUP7 AND SWAP2 JUMPDEST DUP3 DUP2 LT ISZERO PUSH2 0x753 JUMPI DUP9 DUP7 ADD MLOAD DUP3 SSTORE SWAP5 DUP5 ADD SWAP5 PUSH1 0x1 SWAP1 SWAP2 ADD SWAP1 DUP5 ADD PUSH2 0x734 JUMP JUMPDEST POP DUP6 DUP3 LT ISZERO PUSH2 0x770 JUMPI DUP8 DUP6 ADD MLOAD PUSH0 NOT PUSH1 0x3 DUP9 SWAP1 SHL PUSH1 0xF8 AND SHR NOT AND DUP2 SSTORE JUMPDEST POP POP PUSH1 0x1 DUP5 PUSH1 0x1 SHL ADD DUP6 SSTORE JUMPDEST POP POP POP POP POP POP JUMP INVALID LOG2 PUSH5 0x6970667358 0x22 SLT KECCAK256 0x1E SWAP1 PREVRANDAO 0xC9 0xC8 PUSH2 0x1D04 PUSH21 0x881FA07CE269207935C24C13E9B314382C3333DD65 PUSH30 0xD064736F6C63430008180033000000000000000000000000000000000000 "},"methodIdentifiers":{"issueCredential(address,bytes32,string,bytes32,string)":"eb148fee","revokeCredential(address,bytes32)":"e5dca78e","vault(address,bytes32)":"b7773cc9"}}}}}